:1000000012C019C018C017C016C015C014C013C044
:1000100012C011C010C00FC00EC00DC00CC00BC06C
:100020000AC009C008C011241FBECFE5D4E0DEBF5E
:10003000CDBF02D02CC0E4CF81B38B7F81BB87B30F
:10004000816087BB87B3826087BB87B3846087BBCF
:1000500087B3886087BB829B0DC088B38E7F88BBC7
:1000600088B38D7F88BB88B3846088BB88B3886081
:1000700088BBF1CF88B3816088BB88B3826088BBBE
:1000800088B38B7F88BB88B3877F88BBE4CFF89425
:02009000FFCFA0
:00000001FF
