:1000000012C02BC018C017C016C015C014C013C032
:1000100012C011C010C00FC00EC00DC00CC00BC06C
:100020000AC009C008C011241FBECFE5D4E0DEBF5E
:10003000CDBF25D028C0E4CF87B3816087BB0895AA
:1000400081B38B7F81BB82B3846082BB8BB78064BA
:100050008BBF85B7826085BF08951F920F920FB640
:100060000F9211248F939F9398B381E0892788BBC7
:100070009F918F910F900FBE0F901F901895DCDF0E
:0A008000DFDF7894FFCFF894FFCF84
:00000001FF
