:1000000012C019C018C017C016C015C014C013C044
:1000100012C011C010C00FC00EC00DC00CC00BC06C
:100020000AC009C008C011241FBECFE5D4E0DEBF5E
:10003000CDBF02D031C0E4CF87B38F6087BB81E0F2
:1000400088BB2FE38DE093E0215080409040E1F7A2
:1000500000C0000082E088BB2FE38DE093E02150D8
:1000600080409040E1F700C0000084E088BB2FE3AF
:100070008DE093E0215080409040E1F700C0000007
:1000800088E088BB2FE38DE093E0215080409040D2
:0C009000E1F700C00000D3CFF894FFCFD0
:00000001FF
